{
  "contractName": "Voting",
  "abi": [
    {
      "constant": true,
      "inputs": [
        {
          "name": "",
          "type": "uint256"
        }
      ],
      "name": "candidates",
      "outputs": [
        {
          "name": "name",
          "type": "string"
        },
        {
          "name": "voteCount",
          "type": "uint256"
        }
      ],
      "payable": false,
      "stateMutability": "view",
      "type": "function"
    },
    {
      "constant": true,
      "inputs": [],
      "name": "numberOfVoter",
      "outputs": [
        {
          "name": "",
          "type": "uint256"
        }
      ],
      "payable": false,
      "stateMutability": "view",
      "type": "function"
    },
    {
      "constant": true,
      "inputs": [],
      "name": "totalVoteCount",
      "outputs": [
        {
          "name": "",
          "type": "uint256"
        }
      ],
      "payable": false,
      "stateMutability": "view",
      "type": "function"
    },
    {
      "constant": true,
      "inputs": [],
      "name": "stage",
      "outputs": [
        {
          "name": "",
          "type": "uint8"
        }
      ],
      "payable": false,
      "stateMutability": "view",
      "type": "function"
    },
    {
      "constant": true,
      "inputs": [],
      "name": "chairPerson",
      "outputs": [
        {
          "name": "",
          "type": "address"
        }
      ],
      "payable": false,
      "stateMutability": "view",
      "type": "function"
    },
    {
      "constant": true,
      "inputs": [
        {
          "name": "",
          "type": "uint256"
        }
      ],
      "name": "voters",
      "outputs": [
        {
          "name": "account",
          "type": "address"
        },
        {
          "name": "voted",
          "type": "bool"
        },
        {
          "name": "vote",
          "type": "string"
        }
      ],
      "payable": false,
      "stateMutability": "view",
      "type": "function"
    },
    {
      "inputs": [],
      "payable": false,
      "stateMutability": "nonpayable",
      "type": "constructor"
    },
    {
      "anonymous": false,
      "inputs": [
        {
          "indexed": false,
          "name": "x",
          "type": "string"
        }
      ],
      "name": "Notify",
      "type": "event"
    },
    {
      "constant": false,
      "inputs": [
        {
          "name": "_candidate",
          "type": "string"
        }
      ],
      "name": "addCandidate",
      "outputs": [],
      "payable": false,
      "stateMutability": "nonpayable",
      "type": "function"
    },
    {
      "constant": false,
      "inputs": [
        {
          "name": "_voter",
          "type": "address"
        }
      ],
      "name": "addVoter",
      "outputs": [],
      "payable": false,
      "stateMutability": "nonpayable",
      "type": "function"
    },
    {
      "constant": false,
      "inputs": [],
      "name": "startVoting",
      "outputs": [],
      "payable": false,
      "stateMutability": "nonpayable",
      "type": "function"
    },
    {
      "constant": false,
      "inputs": [],
      "name": "finishVoting",
      "outputs": [],
      "payable": false,
      "stateMutability": "nonpayable",
      "type": "function"
    },
    {
      "constant": true,
      "inputs": [],
      "name": "winning",
      "outputs": [
        {
          "name": "_winner",
          "type": "string"
        },
        {
          "name": "_voteCount",
          "type": "uint256"
        }
      ],
      "payable": false,
      "stateMutability": "view",
      "type": "function"
    },
    {
      "constant": false,
      "inputs": [],
      "name": "resetVoting",
      "outputs": [],
      "payable": false,
      "stateMutability": "nonpayable",
      "type": "function"
    },
    {
      "constant": false,
      "inputs": [
        {
          "name": "_candidate",
          "type": "string"
        }
      ],
      "name": "vote",
      "outputs": [],
      "payable": false,
      "stateMutability": "nonpayable",
      "type": "function"
    }
  ],
  "bytecode": "0x608060405234801561001057600080fd5b50336000806101000a81548173ffffffffffffffffffffffffffffffffffffffff021916908373ffffffffffffffffffffffffffffffffffffffff1602179055506000809054906101000a900473ffffffffffffffffffffffffffffffffffffffff1660016000600454815260200190815260200160002060000160006101000a81548173ffffffffffffffffffffffffffffffffffffffff021916908373ffffffffffffffffffffffffffffffffffffffff1602179055506000600360006101000a81548160ff021916908360028111156100e857fe5b02179055506001600481905550611f6e806101046000396000f3006080604052600436106100c5576000357c0100000000000000000000000000000000000000000000000000000000900463ffffffff1680631ec6b60a146100ca5780633477ee2e146100e1578063462e91ec1461018e57806378978e5e146101f7578063853a1b9014610222578063856e698c146102b9578063893d8f4c146102d0578063c040e6b8146102fb578063d4d4b5ac14610334578063da58c7d91461038b578063f4ab9adf1461046f578063f9094303146104b2578063fc36e15b146104c9575b600080fd5b3480156100d657600080fd5b506100df610532565b005b3480156100ed57600080fd5b5061010c600480360381019080803590602001909291905050506107c2565b6040518080602001838152602001828103825284818151815260200191508051906020019080838360005b83811015610152578082015181840152602081019050610137565b50505050905090810190601f16801561017f5780820380516001836020036101000a031916815260200191505b50935050505060405180910390f35b34801561019a57600080fd5b506101f5600480360381019080803590602001908201803590602001908080601f016020809104026020016040519081016040528093929190818152602001838380828437820191505050505050919291929050505061088d565b005b34801561020357600080fd5b5061020c610ce8565b6040518082815260200191505060405180910390f35b34801561022e57600080fd5b50610237610cee565b6040518080602001838152602001828103825284818151815260200191508051906020019080838360005b8381101561027d578082015181840152602081019050610262565b50505050905090810190601f1680156102aa5780820380516001836020036101000a031916815260200191505b50935050505060405180910390f35b3480156102c557600080fd5b506102ce610ec6565b005b3480156102dc57600080fd5b506102e5611116565b6040518082815260200191505060405180910390f35b34801561030757600080fd5b5061031061111c565b6040518082600281111561032057fe5b60ff16815260200191505060405180910390f35b34801561034057600080fd5b5061034961112f565b604051808273ffffffffffffffffffffffffffffffffffffffff1673ffffffffffffffffffffffffffffffffffffffff16815260200191505060405180910390f35b34801561039757600080fd5b506103b660048036038101908080359060200190929190505050611154565b604051808473ffffffffffffffffffffffffffffffffffffffff1673ffffffffffffffffffffffffffffffffffffffff1681526020018315151515815260200180602001828103825283818151815260200191508051906020019080838360005b83811015610432578082015181840152602081019050610417565b50505050905090810190601f16801561045f5780820380516001836020036101000a031916815260200191505b5094505050505060405180910390f35b34801561047b57600080fd5b506104b0600480360381019080803573ffffffffffffffffffffffffffffffffffffffff169060200190929190505050611243565b005b3480156104be57600080fd5b506104c76115fb565b005b3480156104d557600080fd5b50610530600480360381019080803590602001908201803590602001908080601f016020809104026020016040519081016040528093929190818152602001838380828437820191505050505050919291929050505061188d565b005b7f740029a372cf63fe0e8d59421d39ff2e39506263bf68a6d46f4ade0771a090126040518080602001828103825260148152602001807f4f6e6c79206f776e65722063616e20646f20697400000000000000000000000081525060200191505060405180910390a16000809054906101000a900473ffffffffffffffffffffffffffffffffffffffff1673ffffffffffffffffffffffffffffffffffffffff163373ffffffffffffffffffffffffffffffffffffffff161415156105f557600080fd5b60007f740029a372cf63fe0e8d59421d39ff2e39506263bf68a6d46f4ade0771a090126040518080602001828103825260188152602001807f43757272656e7420737461676520697320696e76616c6964000000000000000081525060200191505060405180910390a1600360009054906101000a900460ff16600281111561067a57fe5b81600281111561068657fe5b14151561069257600080fd5b600280805490501015610732577f740029a372cf63fe0e8d59421d39ff2e39506263bf68a6d46f4ade0771a0901260405180806020018281038252602e8152602001807f566f74696e67206f6e6c792073746172742077697468206174206c656173742081526020017f74776f2063616e6469646174657300000000000000000000000000000000000081525060400191505060405180910390a16107bf565b6001600360006101000a81548160ff0219169083600281111561075157fe5b02179055507f740029a372cf63fe0e8d59421d39ff2e39506263bf68a6d46f4ade0771a0901260405180806020018281038252600c8152602001807f537461727420766f74696e67000000000000000000000000000000000000000081525060200191505060405180910390a15b50565b6002818154811015156107d157fe5b9060005260206000209060020201600091509050806000018054600181600116156101000203166002900480601f01602080910402602001604051908101604052809291908181526020018280546001816001161561010002031660029004801561087d5780601f106108525761010080835404028352916020019161087d565b820191906000526020600020905b81548152906001019060200180831161086057829003601f168201915b5050505050908060010154905082565b600060607f740029a372cf63fe0e8d59421d39ff2e39506263bf68a6d46f4ade0771a090126040518080602001828103825260148152602001807f4f6e6c79206f776e65722063616e20646f20697400000000000000000000000081525060200191505060405180910390a16000809054906101000a900473ffffffffffffffffffffffffffffffffffffffff1673ffffffffffffffffffffffffffffffffffffffff163373ffffffffffffffffffffffffffffffffffffffff1614151561095457600080fd5b60007f740029a372cf63fe0e8d59421d39ff2e39506263bf68a6d46f4ade0771a090126040518080602001828103825260188152602001807f43757272656e7420737461676520697320696e76616c6964000000000000000081525060200191505060405180910390a1600360009054906101000a900460ff1660028111156109d957fe5b8160028111156109e557fe5b1415156109f157600080fd5b600092505b600280549050831015610c0c57600283815481101515610a1257fe5b90600052602060002090600202016000018054600181600116156101000203166002900480601f016020809104026020016040519081016040528092919081815260200182805460018160011615610100020316600290048015610ab75780601f10610a8c57610100808354040283529160200191610ab7565b820191906000526020600020905b815481529060010190602001808311610a9a57829003601f168201915b50505050509150816040518082805190602001908083835b602083101515610af45780518252602082019150602081019050602083039250610acf565b6001836020036101000a038019825116818451168082178552505050505050905001915050604051809103902060001916846040518082805190602001908083835b602083101515610b5b5780518252602082019150602081019050602083039250610b36565b6001836020036101000a0380198251168184511680821785525050505050509050019150506040518091039020600019161415610bff577f740029a372cf63fe0e8d59421d39ff2e39506263bf68a6d46f4ade0771a090126040518080602001828103825260198152602001807f546869732063616e64696461746520697320657869737465640000000000000081525060200191505060405180910390a1610ce2565b82806001019350506109f6565b600260408051908101604052808681526020016000815250908060018154018082558091505090600182039060005260206000209060020201600090919290919091506000820151816000019080519060200190610c6b929190611d6c565b50602082015181600101555050507f740029a372cf63fe0e8d59421d39ff2e39506263bf68a6d46f4ade0771a0901260405180806020018281038252601a8152602001807f4164642063616e646964617465207375636365737366756c6c7900000000000081525060200191505060405180910390a15b50505050565b60045481565b6060600080600060027f740029a372cf63fe0e8d59421d39ff2e39506263bf68a6d46f4ade0771a090126040518080602001828103825260188152602001807f43757272656e7420737461676520697320696e76616c6964000000000000000081525060200191505060405180910390a1600360009054906101000a900460ff166002811115610d7a57fe5b816002811115610d8657fe5b141515610d9257600080fd5b60009250600091505b600280549050821015610ebf5782600283815481101515610db857fe5b9060005260206000209060020201600101541115610eb257600282815481101515610ddf57fe5b9060005260206000209060020201600101549250829350600282815481101515610e0557fe5b90600052602060002090600202016000018054600181600116156101000203166002900480601f016020809104026020016040519081016040528092919081815260200182805460018160011615610100020316600290048015610eaa5780601f10610e7f57610100808354040283529160200191610eaa565b820191906000526020600020905b815481529060010190602001808311610e8d57829003601f168201915b505050505094505b8180600101925050610d9b565b5050509091565b60007f740029a372cf63fe0e8d59421d39ff2e39506263bf68a6d46f4ade0771a090126040518080602001828103825260148152602001807f4f6e6c79206f776e65722063616e20646f20697400000000000000000000000081525060200191505060405180910390a16000809054906101000a900473ffffffffffffffffffffffffffffffffffffffff1673ffffffffffffffffffffffffffffffffffffffff163373ffffffffffffffffffffffffffffffffffffffff16141515610f8b57600080fd5b6000600360006101000a81548160ff02191690836002811115610faa57fe5b0217905550600090505b60045481101561108b5760006001600083815260200190815260200160002060000160006101000a81548173ffffffffffffffffffffffffffffffffffffffff021916908373ffffffffffffffffffffffffffffffffffffffff16021790555060006001600083815260200190815260200160002060000160146101000a81548160ff021916908315150217905550602060405190810160405280600081525060016000838152602001908152602001600020600101908051906020019061107d929190611dec565b508080600101915050610fb4565b6001600481905550600060058190555060006002816110aa9190611e6c565b507f740029a372cf63fe0e8d59421d39ff2e39506263bf68a6d46f4ade0771a090126040518080602001828103825260198152602001807f526573657420766f74696e67207375636365737366756c6c790000000000000081525060200191505060405180910390a150565b60055481565b600360009054906101000a900460ff1681565b6000809054906101000a900473ffffffffffffffffffffffffffffffffffffffff1681565b60016020528060005260406000206000915090508060000160009054906101000a900473ffffffffffffffffffffffffffffffffffffffff16908060000160149054906101000a900460ff1690806001018054600181600116156101000203166002900480601f0160208091040260200160405190810160405280929190818152602001828054600181600116156101000203166002900480156112395780601f1061120e57610100808354040283529160200191611239565b820191906000526020600020905b81548152906001019060200180831161121c57829003601f168201915b5050505050905083565b60007f740029a372cf63fe0e8d59421d39ff2e39506263bf68a6d46f4ade0771a090126040518080602001828103825260148152602001807f4f6e6c79206f776e65722063616e20646f20697400000000000000000000000081525060200191505060405180910390a16000809054906101000a900473ffffffffffffffffffffffffffffffffffffffff1673ffffffffffffffffffffffffffffffffffffffff163373ffffffffffffffffffffffffffffffffffffffff1614151561130857600080fd5b60007f740029a372cf63fe0e8d59421d39ff2e39506263bf68a6d46f4ade0771a090126040518080602001828103825260188152602001807f43757272656e7420737461676520697320696e76616c6964000000000000000081525060200191505060405180910390a1600360009054906101000a900460ff16600281111561138d57fe5b81600281111561139957fe5b1415156113a557600080fd5b600091505b600454821015611498578273ffffffffffffffffffffffffffffffffffffffff166001600084815260200190815260200160002060000160009054906101000a900473ffffffffffffffffffffffffffffffffffffffff1673ffffffffffffffffffffffffffffffffffffffff16141561148b577f740029a372cf63fe0e8d59421d39ff2e39506263bf68a6d46f4ade0771a090126040518080602001828103825260158152602001807f5468697320766f7465722069732065786973746564000000000000000000000081525060200191505060405180910390a16115f6565b81806001019250506113aa565b60008373ffffffffffffffffffffffffffffffffffffffff161415611524577f740029a372cf63fe0e8d59421d39ff2e39506263bf68a6d46f4ade0771a090126040518080602001828103825260208152602001807f546869732061646472657373206f6620766f74657220697320696e76616c696481525060200191505060405180910390a16115f6565b8260016000600454815260200190815260200160002060000160006101000a81548173ffffffffffffffffffffffffffffffffffffffff021916908373ffffffffffffffffffffffffffffffffffffffff1602179055506004600081548092919060010191905055507f740029a372cf63fe0e8d59421d39ff2e39506263bf68a6d46f4ade0771a090126040518080602001828103825260168152602001807f41646420766f746572207375636365737366756c6c790000000000000000000081525060200191505060405180910390a15b505050565b7f740029a372cf63fe0e8d59421d39ff2e39506263bf68a6d46f4ade0771a090126040518080602001828103825260148152602001807f4f6e6c79206f776e65722063616e20646f20697400000000000000000000000081525060200191505060405180910390a16000809054906101000a900473ffffffffffffffffffffffffffffffffffffffff1673ffffffffffffffffffffffffffffffffffffffff163373ffffffffffffffffffffffffffffffffffffffff161415156116be57600080fd5b60017f740029a372cf63fe0e8d59421d39ff2e39506263bf68a6d46f4ade0771a090126040518080602001828103825260188152602001807f43757272656e7420737461676520697320696e76616c6964000000000000000081525060200191505060405180910390a1600360009054906101000a900460ff16600281111561174357fe5b81600281111561174f57fe5b14151561175b57600080fd5b60045460026005540210156117fd577f740029a372cf63fe0e8d59421d39ff2e39506263bf68a6d46f4ade0771a0901260405180806020018281038252602e8152602001807f566f74696e672066696e697368206f6e6c79206966206174206c65617374203581526020017f302520766f74657220766f74656400000000000000000000000000000000000081525060400191505060405180910390a161188a565b6002600360006101000a81548160ff0219169083600281111561181c57fe5b02179055507f740029a372cf63fe0e8d59421d39ff2e39506263bf68a6d46f4ade0771a0901260405180806020018281038252600d8152602001807f46696e69736820766f74696e670000000000000000000000000000000000000081525060200191505060405180910390a15b50565b600080606060017f740029a372cf63fe0e8d59421d39ff2e39506263bf68a6d46f4ade0771a090126040518080602001828103825260188152602001807f43757272656e7420737461676520697320696e76616c6964000000000000000081525060200191505060405180910390a1600360009054906101000a900460ff16600281111561191757fe5b81600281111561192357fe5b14151561192f57600080fd5b60009350600092505b6004548310156119c2573373ffffffffffffffffffffffffffffffffffffffff166001600085815260200190815260200160002060000160009054906101000a900473ffffffffffffffffffffffffffffffffffffffff1673ffffffffffffffffffffffffffffffffffffffff1614156119b557600193506119c2565b8280600101935050611938565b600015158415151415611a3c577f740029a372cf63fe0e8d59421d39ff2e39506263bf68a6d46f4ade0771a0901260405180806020018281038252601e8152602001807f4f6e6c79207265676973746572656420766f7465722063616e20766f7465000081525060200191505060405180910390a1611d65565b600115156001600085815260200190815260200160002060000160149054906101000a900460ff1615151415611ad9577f740029a372cf63fe0e8d59421d39ff2e39506263bf68a6d46f4ade0771a0901260405180806020018281038252601e8152602001807f4561636820766f746572206f6e6c7920766f7465206f6e652074696d6573000081525060200191505060405180910390a1611d65565b600180600085815260200190815260200160002060000160146101000a81548160ff021916908315150217905550600092505b600280549050831015611cfc57600283815481101515611b2857fe5b90600052602060002090600202016000018054600181600116156101000203166002900480601f016020809104026020016040519081016040528092919081815260200182805460018160011615610100020316600290048015611bcd5780601f10611ba257610100808354040283529160200191611bcd565b820191906000526020600020905b815481529060010190602001808311611bb057829003601f168201915b50505050509150816040518082805190602001908083835b602083101515611c0a5780518252602082019150602081019050602083039250611be5565b6001836020036101000a038019825116818451168082178552505050505050905001915050604051809103902060001916856040518082805190602001908083835b602083101515611c715780518252602082019150602081019050602083039250611c4c565b6001836020036101000a0380198251168184511680821785525050505050509050019150506040518091039020600019161415611cef57600283815481101515611cb757fe5b906000526020600020906002020160010160008154809291906001019190505550600560008154809291906001019190505550611cfc565b8280600101935050611b0c565b7f740029a372cf63fe0e8d59421d39ff2e39506263bf68a6d46f4ade0771a090126040518080602001828103825260118152602001807f566f7465207375636365737366756c6c7900000000000000000000000000000081525060200191505060405180910390a15b5050505050565b828054600181600116156101000203166002900490600052602060002090601f016020900481019282601f10611dad57805160ff1916838001178555611ddb565b82800160010185558215611ddb579182015b82811115611dda578251825591602001919060010190611dbf565b5b509050611de89190611e9e565b5090565b828054600181600116156101000203166002900490600052602060002090601f016020900481019282601f10611e2d57805160ff1916838001178555611e5b565b82800160010185558215611e5b579182015b82811115611e5a578251825591602001919060010190611e3f565b5b509050611e689190611e9e565b5090565b815481835581811115611e9957600202816002028360005260206000209182019101611e989190611ec3565b5b505050565b611ec091905b80821115611ebc576000816000905550600101611ea4565b5090565b90565b611ef791905b80821115611ef35760008082016000611ee29190611efa565b600182016000905550600201611ec9565b5090565b90565b50805460018160011615610100020316600290046000825580601f10611f205750611f3f565b601f016020900490600052602060002090810190611f3e9190611e9e565b5b505600a165627a7a72305820183312420cfee8282687e76feb1e28585ab92dd387267c84e4f29ba2938670500029",
  "source": "pragma solidity ^0.4.24;\n\ncontract Voting {\n\n    /* Struct to hold details of Voter */\n    struct Voter {\n        address account;\n        bool voted;\n        string vote;\n    }\n    \n    /* Struct to hold details of Candidate */\n    struct Candidate {\n        string name;\n        uint voteCount;\n    }\n\n    enum Stage {\n        INIT,\n        START,\n        FINISH\n    }\n\n    address public chairPerson;\n    mapping(uint => Voter) public voters;\n    Candidate[] public candidates;\n    Stage public stage;\n    uint public numberOfVoter;\n    uint public totalVoteCount;\n\n    event Notify(string x);\n\n    constructor () public {\n        /* Người xuất bản là chủ tọa */\n        chairPerson = msg.sender;\n        voters[numberOfVoter].account = chairPerson;\n        stage = Stage.INIT;\n        numberOfVoter = 1;\n    }\n\n    modifier onlyOwner() {\n        emit Notify(\"Only owner can do it\");\n        require(msg.sender == chairPerson);\n        _;\n    }\n\n    modifier checkStage(Stage _stage) {\n        emit Notify(\"Current stage is invalid\");\n        require(_stage == stage);\n        _;\n    }\n\n    /* Chỉ có chủ tọa được thêm ứng viên */    \n    /* Chủ tọa thêm tên từng ứng viên */\n    function addCandidate(string _candidate) onlyOwner() checkStage(Stage.INIT) {\n        /* Không có 2 ứng viên tên giống nhau */\n        for(uint i = 0; i < candidates.length; i++) {\n            string memory tempName = candidates[i].name;\n            if(keccak256(_candidate) == keccak256(tempName)) {\n                emit Notify(\"This candidate is existed\");\n                return;\n            }\n        }\n        candidates.push(Candidate(_candidate, 0));\n        emit Notify(\"Add candidate successfully\");\n    }\n\n    /* Chỉ có chủ tọa được thêm cử tri */\n    /* Chủ tọa thêm từng cử chi (địa chỉ tài khoản) */\n    function addVoter(address _voter) onlyOwner() checkStage(Stage.INIT) {\n        /* Mỗi cử tri chỉ được thêm vào 1 lần duy nhất */\n        for(uint i = 0; i < numberOfVoter; i++) {\n            if(voters[i].account == _voter) {\n                emit Notify(\"This voter is existed\");\n                return;\n            }\n        }\n\n        /* Địa chỉ của cử tri phải khác 0 */\n        if(_voter == 0) {\n            emit Notify(\"This address of voter is invalid\");\n            return;\n        }\n\n        voters[numberOfVoter].account = _voter;\n        numberOfVoter++;\n        emit Notify(\"Add voter successfully\");\n    }\n\n    /* Chủ tọa bắt đầu việc bầu cử */\n    /* Chỉ có chủ tọa bắt đầu việc bầu cử */\n    function startVoting() onlyOwner() checkStage(Stage.INIT) {\n        /* Chỉ được phép bầu cử nếu có ít nhất 2 ứng viên */\n        if(candidates.length < 2) {\n            emit Notify(\"Voting only start with at least two candidates\");\n            return;\n        }\n        stage = Stage.START;\n        emit Notify(\"Start voting\");\n    }\n\n    /* Chủ tọa kết thúc việc bầu cử */\n    /* Chỉ có chủ tọa kết thúc việc bầu cử */\n    function finishVoting() onlyOwner() checkStage(Stage.START) {\n        /* Chỉ được phép kết thúc bầu cử nếu có ít 50% cử tri đã bầu */\n        if(totalVoteCount * 2 < numberOfVoter) {\n            emit Notify(\"Voting finish only if at least 50% voter voted\");\n            return;\n        }\n        stage = Stage.FINISH;\n        emit Notify(\"Finish voting\");\n    }\n\n    /* Công bố ứng viên thắng cuộc */\n    function winning() public checkStage(Stage.FINISH) constant returns (string _winner, uint _voteCount) {\n        uint winningCount = 0;\n        for (uint i = 0; i < candidates.length; i++)\n        {\n            if (candidates[i].voteCount > winningCount)\n            {\n                winningCount = candidates[i].voteCount;\n                _voteCount = winningCount;\n                _winner = candidates[i].name;\n            }\n        }\n        // TODO: Event thông báo người đắc cử\n    }\n\n    /* Chủ tọa reset việc bầu cử (xóa tất cả thông tin ứng viên và cử tri)*/\n    /* Chỉ có chủ tọa reset việc bầu cử */\n    function resetVoting() onlyOwner() {\n        stage = Stage.INIT;\n        for(uint i = 0; i < numberOfVoter; i++) {\n            voters[i].account = 0;\n            voters[i].voted = false;\n            voters[i].vote = \"\";\n        }\n        numberOfVoter = 1;\n        totalVoteCount = 0;\n        candidates.length = 0;\n        emit Notify(\"Reset voting successfully\");\n    }\n\n    /* Cử tri bầu cử */\n    function vote(string _candidate) checkStage(Stage.START) {\n        /* Chỉ có cử tri có tên được bầu cử */\n        bool valid = false;\n        for(uint i = 0; i < numberOfVoter; i++) {\n            if(voters[i].account == msg.sender) {\n                valid = true;\n                break;\n            }\n        }\n        if(valid == false) {\n            emit Notify(\"Only registered voter can vote\");\n            return;\n        }\n\n        /* Mỗi cử tri được bầu 1 lần */\n        if(voters[i].voted == true) {\n            emit Notify(\"Each voter only vote one times\");\n            return;\n        }\n        voters[i].voted = true;\n\n        for(i = 0; i < candidates.length; i++) {\n            string memory tempName = candidates[i].name;\n            if(keccak256(_candidate) == keccak256(tempName)) {\n                candidates[i].voteCount++;\n                totalVoteCount++;\n                break;\n            }\n        }\n        emit Notify(\"Vote successfully\");\n    }\n}",
  "sourcePath": "C:\\Users\\MyPC\\Desktop\\react-box\\contracts\\Voting.sol",
  "compiler": {
    "name": "solc",
    "version": "0.4.24+commit.e67f0147.Emscripten.clang"
  },
  "schemaVersion": "2.0.1",
  "updatedAt": "2018-11-12T01:26:13.489Z"
}